:020000040800F2
:1000000038700020450100084D010008AF5E00086F
:1000100051010008530100085501000800000000CC
:100020000000000000000000000000005701000870
:100030005901000800000000375E0008D1150008D3
:100040005F0100085F0100085F0100085F01000810
:100050005F0100085F0100085F0100085F01000800
:100060005F0100085F0100085F0100085F010008F0
:100070005F0100085F0100085F0100085F010008E0
:100080005F0100085F0100085F0100085F010008D0
:100090005F0100085F0100085F0100085F010008C0
:1000A0005F0100085F0100085F0100085F010008B0
:1000B0005F0100085F0100085F0100085F010008A0
:1000C0005F0100085F0100085F0100085F01000890
:1000D0005F0100085F0100085F0100085F01000880
:1000E0005F0100085F0100085F0100085F01000870
:1000F0005F0100085F0100085F0100085F01000860
:100100005F0100085F0100085F0100085F0100084F
:100110005F0100085F0100085F0100085F0100083F
:100120005F0100085F0100085F0100085F0100082F
:10013000DFF80CD006F08AFA00480047E53B0008DB
:10014000387000200648804706480047FEE7FEE773
:10015000FEE7FEE7FEE7FEE7FEE7FEE7FEE7FEE777
:1001600011020008310100080CB500220192009232
:100170005248016841F4803101604FF4A063016886
:1001800001F4003100910199491C0191009911B9C4
:1001900001999942F3D10168890302D501210091A7
:1001A00000E000920099012930D145490A6842F0E7
:1001B00010020A600A6822F003020A600A6842F02C
:1001C00002020A604168416041684160416841F44F
:1001D00080614160416821F47C114160416841F4D3
:1001E000E8114160016841F0807101600168890196
:1001F000FCD5416821F003014160416841F00201F2
:1002000041604168C1F381010229FAD10CBDABE71D
:1002100010B52A48016841F0010101604168294A8E
:10022000114041600168284A11400160016821F4D1
:1002300080210160416821F4FE0141604FF41F01FB
:100240008160FFF7E4FF21494FF00060086010BDB6
:1002500010B51A4A506800F00C011D4B1D480029CA
:100260000ED004290ED008290ED003605168194A17
:10027000C1F30311121D515C0268CA40026010BD37
:100280000360F3E70360F1E7516801F4701153680C
:1002900003F48033022404EB914133B153689B0390
:1002A00007D50D4B59430160E0E70B4B5943016003
:1002B000DCE7074B59430160D8E70000001002401B
:1002C000002002400000FFF8FFFFF6FE08ED00E00E
:1002D00000127A000000002000093D0001684FF67E
:1002E000FE72114001600021016041608160C160C7
:1002F0007249724A0839904204D1486840F00F00B0
:10030000486070476D4A1432904204D1486840F00A
:10031000F00048607047694A2832904204D148682A
:1003200040F4706048607047644A3C32904204D1A7
:10033000486840F4704048607047604A50329042CC
:1003400004D1486840F47020486070475B4A6432CA
:10035000904204D1486840F4700048607047574AA2
:100360007832904204D1486840F07060486070472D
:10037000534A111F904204D1086840F00F000860F2
:1003800070474F4A1432904204D1086840F0F000A0
:10039000086070474A4A2832904204D1086840F405
:1003A000706008607047464A3C32904204D1086849
:1003B00040F4704008607047414A50329042FAD190
:1003C000086840F470200860704730B5026847F64E
:1003D000F0739A430C6A8B682343D1E904452C439C
:1003E00023438C692343CC6923434C6A23438C6A9F
:1003F000234313430360CA6842600A688260496805
:10040000C16030BD0021016041608160C160016157
:1004100041618161C161016241628162704700296D
:1004200004D0016841F001010160704701684FF696
:10043000FE72114001607047002A03D002680A432F
:100440000260704702688A430260704741607047EB
:10045000406880B2704702460020D10003D5184999
:100460000839096802E0154908390968114200D0C5
:1004700001207047C10003D51149091F086070476A
:100480000E4908394860704702460020D10003D564
:100490000B490839096802E008490839096811421E
:1004A00000D001207047C10003D50549091F08602D
:1004B0007047024908394860704700000800024050
:1004C000080402408100A1F1C04100280CD043F291
:1004D000D2020A60401C8000A0F1C0406FF0704260
:1004E0000260C1F8042170474FF0204343F2DB0261
:1004F0001A60EFE710B5182440234FF020414FF069
:10050000FC32102805D041F8804F4B608A60CA60E9
:1005100010BD0C664B668A66CA6610BDF748182186
:100520000160002141604FF0FC318160C1600161D8
:10053000704710B5D0E901121143D0E903231A43E3
:1005400011434269114382691143C2691143026A2E
:100550001143426A1143826A1143C26A1143026B1A
:10056000114302689200A2F1C0421160816808291B
:1005700007D101688900A1F1C0410A6842F0400238
:100580000A60416BD1E9002342EA03128B688C892F
:100590001B0243EA04431A430B8A42EA03520B7DCF
:1005A000896942EA03620A430168491C8900A1F192
:1005B000C0410A60C16AB1F5804F08D000686FF091
:1005C00070418000A0F1C040C0F8041110BD816BE3
:1005D000D1E9002342EA03128B680C8A1B0243EA2A
:1005E00004531A430B7D896942EA036200680A4397
:1005F0008000A0F1C040C0F8042110BD30B5D0E9A2
:1006000001121143D0E903231A431143426941EA1D
:100610004221826941EA423141F00804C169D1E9CD
:10062000002342EA03220B89097B1B0443EA016190
:100630000A43016AD1E9003543EA05230D89097BA4
:100640002D0445EA01610B4301684FF02040102959
:1006500004D040F8804F8260C36030BD046682667B
:10066000C36630BD10B5D0E9001241EA422182686C
:10067000102343EA42321143A04A1160C168D1E914
:10068000003443EA04230C89097B240444EA016111
:100690000B4393600169D1E9003443EA04230C89D8
:1006A000097B240444EA01610B43D3604069D0E92B
:1006B000001341EA03210389007B1B0443EA006025
:1006C0000143116110BD10B500210160022242609A
:1006D0008160C160016141618161C1610162D202D9
:1006E000426252008262C1620163436B0F221A6050
:1006F000436B5A60446BFF23A360446BE260446B1E
:100700002261446B6261446BA161846B2260846BE3
:100710006260846BA360836BDA60836B1A61836BA6
:100720005A61806B816110BD102101600021416020
:100730008160C160016141618161C269FC21116018
:10074000C2695160C2699160C269D160026A116078
:10075000026A5160026A9160006AC16070470021BC
:10076000016041608160C268FC211160C268516013
:10077000C2689160C268D16002691160026951600B
:10078000026991600269D1604269116042695160F9
:10079000426991604069C16070478000A0F1C0402B
:1007A000002904D0016841F001010160704701682F
:1007B000534A1140016070474FF0204200290CD08D
:1007C000102805D052F8800F40F0040010607047E8
:1007D000106E40F00400106670474949C91E102889
:1007E00004D052F8800F084010607047106E084027
:1007F000106670474FF02041002805D051F8A00F37
:1008000040F004000860704751F8A00F3C4AD21E27
:100810001040086070474FF0204200290CD010288B
:1008200005D052F8800F40F0400010607047106E05
:1008300040F040001066704731493F39102804D01D
:1008400052F8800F084010607047106E0840106624
:1008500070474FF02041102802D0D1F89400704723
:10086000486F704710B54FF480744FF02043002A52
:1008700011D0102806D0A04208D153F8840F0843A5
:10088000186010BD586E0843586610BD53F8A40F89
:100890000843186010BD102806D0A04208D153F8B4
:1008A000840F8843186010BD586E8843586610BD89
:1008B00053F8A40F8843186010BD034600204FF082
:1008C0002042102B08D0B3F5807F07D0D2F8A420A7
:1008D0000A4200D001207047526EF9E7D2F8842016
:1008E000F6E74FF0204210280CD0B0F5807F0DD0F5
:1008F00052F8A40F8843106070470000A00000A0C9
:10090000FEFF0F00506E88435066F5E752F8840FE3
:1009100088431060F0E7034600204FF02042102B80
:100920000ED0B3F5807F0DD0D2F8A42002EA0103E7
:1009300002EAD101002BDFD00029DDD00120DBE766
:10094000526EF3E7D2F88420F0E74FF020421028EF
:1009500008D0B0F5807F0AD052F8A40F20EAD10069
:100960001060C9E7506E20EAD1005066C4E752F823
:10097000840F20EAD1001060BEE7000010B59C494A
:10098000884209D10121042000F07DFA0021BDE850
:100990001040042000F077BA9649884209D101211D
:1009A000082000F070FA0021BDE81040082000F097
:1009B0006ABA9149884209D10121102000F063FAF6
:1009C0000021BDE81040102000F05DBA8B4988423C
:1009D00009D10121202000F056FA0021BDE8104085
:1009E000202000F050BA8649884209D101214020D8
:1009F00000F049FA0021BDE81040402000F043BA61
:100A00008049884209D10121802000F03CFA002170
:100A1000BDE81040802000F036BA7B4988420AD1F8
:100A200084150121204600F02EFA2046BDE8104032
:100A3000002100F028BA10BD10B50121084600F0D1
:100A400022FA0021BDE81040012000F01CBA2DE977
:100A5000F0410022CC7804F00F03E40601D58C7835
:100A600023430C784FF00F0714F0FF0F4FF0010CE9
:100A70001CD005680CFA02F40E882640A64211D15B
:100A8000960007FA06F825EA080503FA06F848EA88
:100A90000505CE78282E02D0482E02D002E044610F
:100AA00000E00461521C082AE4D305600A88FF2A8A
:100AB0001ED94568002202F108060CFA06F40E88D9
:100AC0002640A64210D1960007FA06F825EA080546
:100AD00003FA06F848EA0505CE78282E00D14461CD
:100AE000CE78482E00D10461521C082AE3D3456019
:100AF000BDE8F0814FF6FF71018002218170042171
:100B0000C17070470246002092680A4200D001205E
:100B10007047806880B2704702460020D2680A425F
:100B200000D001207047C06880B2704701617047F3
:100B300041617047002A01D00161704741617047EF
:100B4000C160704741F48032826181618261816954
:100B50008069704710B52D4B1A684FF6807422409B
:100B600042EA00100843186010BD2949C861704767
:100B7000F0B5264C002801DAE36900E06368C0F3B1
:100B80000346420D120185B2C0F301579540032F71
:100B900007D0C2020CD50322B240934343F07062E7
:100BA00009E023F07062636823F07063636002E021
:100BB000AB4343F0706201B12A43002801DAE261DD
:100BC000F0BD6260F0BD10B58A07120F0F2393408D
:100BD00021F003040D4921448C689C438C608B6890
:100BE000904003438B6010BD0949DC3108607047B9
:100BF00000080140000C01400010014000140140B9
:100C000000180140001C014000200140000001408C
:100C100000002042B448016841F0010101604168D0
:100C2000B24A114041600168B14A11400160016857
:100C300021F480210160416821F4FE0141604FF4FC
:100C40001F0181607047A8490A6822F480320A6057
:100C50000A6822F480220A60B0F5803F07D0B0F520
:100C6000802F03D1086840F4A0200860704708680E
:100C700040F48030086070470346002059099A4AC2
:100C800001290AD002290AD0516A03F01F02012368
:100C900093400B4200D0012070471168F5E7116ABC
:100CA000F3E718B5002000904FF4A0643120FFF75F
:100CB000E3FF0099491C00910099A14201D000284E
:100CC000F4D03120FFF7D8FF08B1012018BD002073
:100CD00018BD854A116821F0F80141EAC000106092
:100CE00070478449086070477F4B5A6822F47C1231
:100CF00008431043586070477E49086670477A4A37
:100D0000516821F003010143516070477648406803
:100D100000F00C007047744A516821F0F001014363
:100D200051607047704A516821F4E061014351609D
:100D300070476D4A516821F4605141EAC00050602B
:100D40007047694A002903D0517A014351727047B4
:100D5000517A8143517270476649D83108607047B3
:100D6000614A516821F440410143516070475E4936
:100D7000002220310A7001F82029012805D004281A
:100D800002D1052081F820007047012081F8200061
:100D9000704759490860704753490A6A02430A621A
:100DA0007047554944390860704710B54E4A51683C
:100DB00001F00C01514B002927D0042927D0082924
:100DC00027D00360516801F0F00109094C4B5C5CCD
:100DD0000168E1404160546804F4E064240A1C5D49
:100DE00021FA04F48460546804F46054E40A1B5D3E
:100DF000D940C160526802F44042920B404B1B1F25
:100E00009A5CB1FBF2F1016110BD0360DAE70360A7
:100E1000D8E7516801F47011536803F48033022459
:100E200004EB914133B153689B0307D5354B5943CC
:100E30000160C7E7334B59430160C3E72F4B594368
:100E40000160BFE7284A002903D05169014351617D
:100E500070475169814351617047234A002903D08B
:100E60009169014391617047916981439161704734
:100E70001D4A002903D0D1690143D1617047D1696E
:100E80008143D1617047184A002903D0D1680143DA
:100E9000D1607047D1688143D1607047124A002900
:100EA00003D01169014311617047116981431161D8
:100EB000704711494039086070470E49C86470474F
:100EC0000949C87170470848416A41F08071416220
:100ED000704701460020044A92680A4200D001206F
:100EE0007047014988727047001002400000FFF807
:100EF000FFFFF6FE000042428004424200127A00E8
:100F00001800002000093D0010B5A94988420AD107
:100F1000841401212046FFF7B6FF2046BDE81040AB
:100F20000021FFF7B0BFA34988420AD10414012170
:100F30002046FFF7B3FF2046BDE810400021FFF731
:100F4000ADBF9D4988420AD1C41301212046FFF755
:100F5000A5FF2046BDE810400021FFF79FBF10BD50
:100F600030B5028802F441530A884C88CD88224368
:100F70008C882C4322430C8922434C8922438C8940
:100F80002243CC8922431A430280828B22F40062DE
:100F90008283098A018230BDF0B585B005460C46D2
:100FA000022000210126AA8B4FF240031A40AA8397
:100FB00002222A84AF8BA268022A21D0A08800B125
:100FC00002266846FFF7F1FE0098E188B1F5007F40
:100FD0002CD07101B0FBF1F000EB8000A168400063
:100FE000B0FBF1F0401D80B20A21B0FBF1F000F03F
:100FF0000101401AC0F34F004FF6FF7202EA0121CF
:10100000821EFE2A01D302200021E2880843024307
:101010002A8420886188A2890843A1881143084353
:10102000384340F40060A88305B0F0BD000A00EB2F
:101030008000A1684000B0FBF1F0401D80B2D3E712
:101040000021018041808180C180018141818181B5
:10105000C181072101827047002101804180818088
:10106000C1800222826081817047002904D00188FA
:1010700041F0400101807047018821F0400101806A
:101080007047002904D0818B41F4806181837047CF
:10109000818B21F4806181837047090901238B4092
:1010A00099B2002A03D082880A43828070478288DE
:1010B0008A4382807047002A03D082880A43828054
:1010C000704782888A438280704781817047808917
:1010D0007047A1F57E42FF3A04D0018841F4807147
:1010E00001807047018821F48071018070470029D8
:1010F00004D0818841F0040181807047818821F00B
:10110000040181807047028822F400620280028814
:101110000A4302807047018841F480510180704782
:10112000002904D0018841F40051018070470188F2
:1011300021F4005101807047012901D0008B7047D4
:10114000808A7047008A7047B1F5804F04D00188CB
:1011500021F4804101807047018841F48041018081
:1011600070470246002012890A4200D001207047D1
:10117000C9430181704730B50246002001F00F03DA
:10118000012505FA03F4A3B2090905FA01F4A4B292
:101190009188214012891A4202D0002900D00120F2
:1011A00030BD01F00F0201219140C9430181704718
:1011B0000030014000380040003C004010B5E149DB
:1011C00088420AD101218C032046FFF75CFE2046AD
:1011D000BDE810400021FFF756BEDB4988420AD126
:1011E00001214C042046FFF759FE2046BDE810407F
:1011F0000021FFF753BED54988420AD101218C0452
:101200002046FFF74BFE2046BDE810400021FFF7C7
:1012100045BECF4988420AD10121CC042046FFF7C0
:101220003DFE2046BDE810400021FFF737BEC9490A
:1012300088420AD101210C052046FFF72FFE2046E7
:10124000BDE810400021FFF729BE10BD30B585B0C4
:1012500004460D46208A4CF6FF710840E988014398
:101260002182A0894EF6F3110840A9882A891143EA
:101270006A8902431143A181A08A4FF6FF410840C9
:10128000A9890143A1826846FFF78FFDAD488442DA
:1012900001D1039800E00298A189090408D500EB68
:1012A000C00101EB001029684900B0FBF1F007E034
:1012B00000EBC00101EB001029688900B0FBF1F0E0
:1012C0006422B0FBF2F109010B096FF018056B43C2
:1012D00000EB8300A3891D044FF0320307D503EB15
:1012E000C000B0FBF2F000F00700084306E003EB9B
:1012F0000010B0FBF2F000F00F000843208105B0B1
:1013000030BD4FF41651016000218180C180018100
:101310000C2242818181704710B5038A4FF2FF028F
:1013200013400A884C8822438C88C9880C43224386
:101330001A43028210BD0021018041808180C1805A
:101340007047002904D0818941F4005181817047A0
:10135000818921F400518181704710B540F66A13EC
:10136000C1F3421301F01F040121A140012B07D05A
:10137000022B07D014303AB102680A43026010BD54
:101380000C30F8E71030F6E702688A43026010BDBF
:10139000002A03D0828A0A4382827047828A8A4363
:1013A00082827047028A22F00F020282028A0A4376
:1013B00002827047828922F40062828182890A4314
:1013C00082817047002904D0818941F00201818126
:1013D0007047818921F0020181817047028A22F0E1
:1013E00020020282028A0A4302827047002904D046
:1013F000018A41F4804101827047018A21F48041D1
:1014000001827047C1F30801818070478088C0F372
:1014100008007047818941F0010181817047028B8A
:10142000D2B20283028B42EA012101837047028B10
:1014300002F47F420283028B0A4302837047002931
:1014400004D0818A41F0200181827047818A21F095
:10145000200181827047002904D0818A41F0100167
:1014600081827047818A21F01001818270470029B2
:1014700004D0818A41F0080181827047818A21F07D
:10148000080181827047002904D0818941F400411C
:10149000818170478189C1F30E01818170470029E4
:1014A00004D0818A41F4006181827047818A21F4ED
:1014B000006181827047828A22F004028282828ADD
:1014C0000A4382827047002904D0818A41F00201D8
:1014D00081827047818A21F0020181827047024631
:1014E000002012880A4200D0012070478A05C943B3
:1014F0000180704770B5002440F66A12C1F34213B0
:1015000001F01F05012606FA05F2012B0CD0022B73
:101510000DD0838A1340090A8E40008830400BB1F9
:1015200000B10124204670BD83891340F3E7038A8C
:101530001340F0E740F66A120A0A01219140C943BC
:1015400001807047003801400044004000480040DE
:10155000004C004000500040344870473448704709
:1015600010B534484FF47A710068B0FBF1F0B0F177
:10157000807F0CD220F07F414FF0E020491E416176
:101580002D4AF0211170002181610721016100F0D5
:10159000B9F800F0E7F800F08DF900F0AAFB01F0CF
:1015A0004DFB0021032001F01EFF032000F050FB43
:1015B0002248007802F07AFA02F0D4FAFFF7CEFF60
:1015C0000446FFF7C9FF2146BDE8104003F07CBD8B
:1015D00010B503F07BF902F097FABDE8104003F074
:1015E00080B970B5044604F07FF8154D16E00A285E
:1015F00009D10D212846FFF705FF80212846FFF776
:101600006EFF0028F9D014F8011B2846FFF7FAFEF8
:1016100080212846FFF763FF0028F9D020780028B2
:10162000E5D1BDE8704004F06AB800003402002043
:10163000341200200000002023ED00E02C000020E8
:10164000003801401CB50024DFF890802BE02448CE
:1016500002F0D6F902F048F922A023A523A624A778
:10166000CDE90004282314211A46084600F02AFF79
:10167000CDE9005428231A463C21142000F022FF13
:10168000CDE9006428231A466421142000F01AFFD3
:10169000CDE9007428231A468C21142000F012FF93
:1016A0000A2004F0DBF9D8F800000028D2D1CEE7F8
:1016B0001CB514200321CDE900104FF40073002263
:1016C0000C490DA004F01CF90D49086018B104F094
:1016D000E2F800201CBD4FF0FF301CBD640000206C
:1016E00034010020C6B40000CDBC0000D3CE000001
:1016F000CFB7000045160008746573740000000041
:101700002800002038B501210820FFF7A6FB202083
:10171000ADF8000010208DF8030003208DF80200C2
:101720000F4C69462046FFF792F90121ADF80010F1
:1017300069462046FFF78BF90221ADF80010694693
:101740002046FFF784F920212046FFF7EFF9012119
:101750002046FFF7EBF902212046FFF7E7F938BDF5
:10176000000C014010B586B001210420FFF775FB85
:1017700001218803FFF771FB4FF40070ADF81400EE
:1017800018208DF8170003208DF816005C4C05A971
:101790002046FFF75CF92115ADF8141004218DF8EF
:1017A000171005A92046FFF752F94FF4E1300190D8
:1017B0000020ADF80800ADF80A00ADF80C00ADF857
:1017C00010000C20ADF80E004E4C01A92046FFF78A
:1017D0003DFD01212046FFF7B4FD06B010BD10B558
:1017E00004462046FFF70EFE80212046FFF777FED5
:1017F0000028F9D010BD2DE9F04107460D461646E8
:10180000002405E0295D3846FFF7E9FF641CE4B2D7
:10181000B442F7D340213846FFF761FE0028F9D0E3
:10182000BDE8F08170B506460D4600243046295DBE
:10183000FFF7D5FF641C285D0028F7D14021304612
:10184000FFF74DFE0028F9D070BD70B50546080AB7
:10185000CCB201462846FFF7D5FD80212846FFF788
:101860003EFE0028F9D021462846FFF7CBFD802117
:101870002846FFF734FE0028F9D070BD70B5044645
:10188000204DE1B22846FFF7BDFD80212846FFF735
:1018900026FE0028F9D0204670BD10B5194C202135
:1018A0002046FFF71CFE0028F9D02046BDE8104076
:1018B000FFF7ACBD10B58CB001210846FFF7C2FAA6
:1018C0001048001D0190104802901020039041F232
:1018D00088300490002005908021069107900890A0
:1018E000099049010A910B90084C01A92046FEF786
:1018F0006CFD01212046FEF792FD0CB010BD0000EA
:101900000008014000380140341200204400024029
:1019100001B502E00098401E009000980028F9D11F
:1019200008BD2DE9F84F01216020FFF796FA032446
:101930008DF8024018258DF803504FF48047ADF81C
:1019400000706946FE48FFF782F84FF40048ADF892
:1019500000806946FA48FFF77AF80120ADF80000E8
:101960006946F748FFF773F80220ADF800006946B2
:10197000F348FFF76CF88026ADF800606946F1483F
:10198000FFF765F84FF48079ADF800906946ED48AF
:10199000FFF75DF84FF4007AADF800A06946E9481A
:1019A000FFF755F84FF4806BADF800B06946E54895
:1019B000FFF74DF83001ADF800006946E148FFF748
:1019C00046F87001ADF800006946DE48FFF73FF8C1
:1019D000B001ADF800006946DA48FFF738F8ADF815
:1019E00000706946D748FFF732F8ADF800806946C5
:1019F000D448FFF72CF8ADF800906946D048FFF7BF
:101A000026F8ADF800A06946CD48FFF720F8ADF8FC
:101A100000B06946CA48FFF71AF88DF802408DF801
:101A200003501025ADF800506946C548FFF70FF880
:101A30002020ADF800006946C148FFF708F8ADF86E
:101A400000606946BE48FFF702F8E801ADF8000003
:101A50006946BB48FEF7FBFF8DF803508DF8024046
:101A60000220ADF800006946B648FEF7F0FF8DF899
:101A700003508DF802402802ADF800006946B048D6
:101A8000FEF7E5FFBDE8F88F00B597B00121080229
:101A9000FFF7D8F9012001900420039080060790F9
:101AA000002002900490059006900890099008216B
:101AB0000A9110210B910C900E900F90109009023A
:101AC000119112901390149001A81590169008A8E7
:101AD000FEF72FFD01210020FEF75FFE17B000BDCD
:101AE00010B5CF204FF0C0442080002196480180DF
:101AF0008121018030210180ED212180642101803C
:101B0000032101801221018081210180E8212180AF
:101B1000852101801021018078210180CB21218045
:101B2000392101802C210180002101803421018094
:101B300002210180F721218020210180EA212180DA
:101B4000002101800180B1212180002101801B2121
:101B50000180B62121800A210180A2210180C021BB
:101B6000218035210180C121218011210180C521E1
:101B70002180452101800180C7212180A22101808F
:101B8000F221218000210180262121800121018074
:101B9000E02121800F210180262101802421018064
:101BA0000B2101800E210180092101805421018037
:101BB000A8210180462101800C210180172101808C
:101BC000092101800F21018007210180002101806E
:101BD000E121218000210180192101801B21018048
:101BE0000421018010210180072101802A21018028
:101BF00047210180392101800321018006210180D4
:101C0000018030210180382101800F21018036219F
:101C10002180C82101802A212180002101800180AA
:101C20000180EF2101802B21218000210180018092
:101C3000012101803F2101803A212180552101802D
:101C4000112020804148FFF763FE2920208010BD2D
:101C500010B507282BD83E4A1070C4074FF0F0018A
:101C60004FF4A07324D05380918036210B07198044
:101C7000082141EA4011344801802A2119800021BD
:101C8000018001805188491EC1F307240480C9B234
:101C900001802B2119800021018001809188491E3B
:101CA000C1F307220280C9B201802C20188010BD28
:101CB00051809380D9E770B5224C02212046FEF76F
:101CC00037FF40F6FF252846FFF722FE0221204677
:101CD000FEF72CFF2846BDE8704019E6184A4FF47D
:101CE0008051002802D01046FEF722BF1046FEF7B2
:101CF0001DBF10B5FFF715FEFFF7C6FE0120FFF769
:101D0000EDFFFFF7D8FFFFF7EBFE11480078BDE8C5
:101D100010409DE770B52A244FF0C0463480050A74
:101D2000094C2580C5B225801044401E020A22803D
:101D3000C0B220802B203080080A2080C8B209E081
:101D4000001401400018014000000260FCBF0200C6
:101D50002C0000202080C818401E010A2180C0B23B
:101D6000208070BD01231A46D4E770B514461D4685
:101D70002B462246FFF7CEFFFA4904FB05F00989FE
:101D8000BDE8704000F09EBC10B5F64C62889042F1
:101D90000AD2A288914207D2FFF7E4FFE188BDE8AA
:101DA0001040012000F08EBC10BD2E204FF0C0412D
:101DB0000880ED4801880188028800886FF30A01D5
:101DC000800A41EA401040EAD220704710B5FFF780
:101DD000C9FFBDE81040E8E72DE9FE4F00250026C9
:101DE000171AA3EB010882468B46681E002F03DDFD
:101DF0004FF00101019107E003D14FF00001019183
:101E000002E00190C7F10007B8F1000F03DD4FF0C9
:101E10000100009007E003D14FF00000009002E0C5
:101E20000090C8F10008474501DD3C4600E044460B
:101E30004FF00009601C029017E059465046FFF72A
:101E4000A3FF3D444644A54204DD2D1B01985044A8
:101E50001FFA80FAA64204DD361B009858441FFA88
:101E600080FB09F101091FFA89F902988145E4DD37
:101E7000BDE8FE8F2DE9F041064606980F46144650
:101E80001D4600280DD02B46224639463046FFF726
:101E900041FFB44904FB05F0C988BDE8F04100F0FA
:101EA00011BC3444641EA2B23B4639463046FFF7AB
:101EB00093FF3D446D1EABB2A2B2A9B23046FFF70C
:101EC0008BFFABB2324639463046FFF785FFABB2E7
:101ED000A2B2A0B23946BDE8F0417DE72DE9FF4F3F
:101EE00085B007468846002416B20320A0EB4200C6
:101EF0000FFA80F994E00898E8B3254642E03819D3
:101F000008EB050A04901FFA8AF180B2FFF73CFF44
:101F10001FFA8AF1A7EB040A1FFA8AF0FFF734FFD1
:101F200008EB040081B2A7EB050B03901FFA8BF0BE
:101F3000FFF72AFFA8EB040081B202901FFA8BF092
:101F4000FFF722FFA8EB050B1FFA8BF11FFA8AF0AF
:101F5000FFF71AFF04981FFA8BF180B2FFF714FF06
:101F6000029807EB050A81B21FFA8AF0FFF70CFF0F
:101F7000039881B200E008E01FFA8AF0FFF704FF3F
:101F80006D1C2DB2B542BADD37E0381908EB0605F5
:101F90000190A9B280B2FFF7F7FEA7EB040AA9B23D
:101FA0001FFA8AF0FFF7F0FE08EB040081B2A7EBFE
:101FB000060B00901FFA8BF0FFF7E6FEA8EB040576
:101FC000A9B21FFA8BF0FFF7DFFEA8EB060B1FFA92
:101FD0008BF11FFA8AF0FFF7D7FE01981FFA8BF1F9
:101FE00080B2FFF7D1FEA9B2BD19A8B2FFF7CCFEAF
:101FF000009881B2A8B2FFF7C7FE641C24B2B9F101
:10200000000F05DA09EB8400801D0FFA80F907E064
:10201000A01B09EB80000A300FFA80F9761E36B259
:10202000B4427FF768AF09B0BDE8F08FF0B5203A51
:1020300097B24C4EF568AA88EB8802FB03F44FEA8E
:10204000E47C04EB5C74C4F3C7042D6807FB0455FF
:10205000FFF760FE2C20C10608800021424F12E0ED
:10206000002080236A5C23FA00FC12EA0C0F02D0E5
:10207000F2883A8001E032893A80401CC0B20828D8
:10208000F0D3491CC9B2A142EAD3F0BDF0B5054670
:102090000E460024334F19E0F8687B88818821447C
:1020A000994203D90024C18829448DB2C088B988D7
:1020B0002844884201D90024002529462046FFF7FC
:1020C000B5FF761CF8688088204484B23278002AF4
:1020D000E2D1F0BDF0B504460D461646214F19E099
:1020E000F8687B8881882144994203D90024C188FB
:1020F00029448DB2C088B9882844884201D9002477
:10210000002529462046FFF791FF761CF868808855
:10211000204484B23278002AE2D1F0BDF0B5054601
:102120000C4616460F4F19E0F868BB88C188214459
:10213000994203D90024818829448DB28088798806
:102140002844884201D90025002421462846FFF76B
:102150006DFF761CF868C088204484B23278002A6B
:10216000E2D1F0BD2C000020000002602DE9F0411A
:1021700088B0144610231A46FFF7CCFD2C20C30666
:1021800018802146684600F0B1FA0021EC464FF66F
:10219000FF784FF40047FE4DFE4E1CF8110008EA90
:1021A00000200CEB410254780443002027FA00F38E
:1021B000234202D0EA88328001E02A893280401C22
:1021C000C0B21028F2D3491CC9B21029E5D308B017
:1021D000BDE8F0812DE9F04104460D461646EC4F6E
:1021E0001AE0798804F11000884202D900241035E1
:1021F000ADB2B98805F11000884201D9002400254C
:102200003088010201EB102082B229462046FFF7F8
:10221000ADFF1034A4B2B61C30780028E1D1D7E766
:102220002DE9F04105460E460024D94F37E07E2ABD
:102230001AD8F8687B8881882144994203D9002400
:10224000C18829448DB2C088B9882844884201D900
:102250000024002529462046FFF7E8FEF86880881C
:10226000204484B2761C1AE0798804F11000884278
:1022700002D900241035ADB2B98805F110008842AA
:1022800001D9002400253088010201EB102082B220
:1022900029462046FFF76AFF1034A4B2B61C3278F4
:1022A000002AC4D194E72DE9F04104460D461646B4
:1022B000B74F37E07E2A1AD8F8687B888188214496
:1022C000994203D90024C18829448DB2C088B988B5
:1022D0002844884201D90024002529462046FFF7DA
:1022E000A5FEF8688088204484B2761C1AE07988BC
:1022F00004F11000884202D900241035ADB2B9882B
:1023000005F11000884201D900240025308801021F
:1023100001EB102082B229462046FFF727FF103438
:10232000A4B2B61C3278002AC4D151E72DE9F0419D
:1023300006460C461546964F24E0B98804F1100075
:10234000884202D900241036B6B2798806F110000E
:10235000884201D9002600247E2A07D8214630462B
:10236000FFF764FE6D1C1034A4B20BE02888010254
:1023700001EB102082B221463046FFF7F7FE103401
:10238000A4B2AD1C2A78002AD7D121E72DE9F04F5D
:10239000099F0B9D040494FBF2F909F101090C0457
:1023A00094FBF3FA0AF1010A0026202866D200FB0A
:1023B00001F4002C62D0B4F5806F5FDA02FB03F405
:1023C000002C5BD0B4F5804F58DA734C41434FEA90
:1023D000E17C4FF0800B01EB5C7E0DB100252FE01E
:1023E000002514E0002117F805802BFA01FC18EAFB
:1023F0000C0F02D04FF0010C01E04FF0000C04F87C
:1024000001CB491C89B20829EDD36D1CADB2B5EBE7
:10241000EE0FE7DB17E0002117F805802BFA01FC2F
:1024200018EA0C0F02D04FF0010C01E04FF0000C45
:1024300004F801CB491C89B20829EDD36D1CADB25B
:10244000B5EBEE0FE7DBDFF85081A8F580450027FC
:1024500012E00024310C00FB018C002107E00CEBA2
:10246000144B9BF800B005F801B04C44491C914254
:10247000F5D3564415447F1C9F42EAD3D4E52DE999
:10248000F0411646DDE906479846002543463246A8
:10249000FFF740FC2C20C10608803D4B3D4A0EE072
:1024A000002009E014F8011BB94202D119891180FA
:1024B00001E0D9881180401CB042F3D36D1C454522
:1024C000EED385E62DE9F04F8BB00446DDE9145AD2
:1024D0000F46904699464646DFF8C0B057E02C4973
:1024E000A2194B889A4203D9002407EB090297B23C
:1024F000898807EB09028A4201D900240027802835
:102500001FD946462888010201EB102081B203A89A
:1025100000F0ECF803AA0121CDE900280291102176
:102520004B4632460846FFF731FFCDE900BA4B462D
:10253000324639462046FFF7A2FFA01984B2AD1CEF
:1025400025E04FEA58062038C1B215480023C2885A
:10255000B0F804C0006802FB0CF24A43D11702EB4A
:102560005171CDE9018300EBE10000904B4632460A
:1025700018211020FFF70AFFCDE900BA4B4632467A
:1025800039462046FFF77BFFA01984B26D1C09E095
:102590002C00002000000260BC650020BC2500204B
:1025A000440000202878002899D10BB03CE52DE9A3
:1025B000F04F8BB00746DDE914590C461646984695
:1025C000DFF818B158E04649A2194B889A4202D95F
:1025D0000024BA1997B2898807EB08028A4201D908
:1025E00000240027802820D9B2462888010201EB68
:1025F000102081B203A800F079F803AA0121CDE9E7
:10260000002602911021434652460846FFF7BEFEBF
:10261000CDE900B94346524621463846FFF72FFF21
:1026200004EB080084B2AD1C26E04FEA560A2038BD
:10263000C1B22C480023C288B0F804C0006802FB75
:102640000CF24A43D11702EB5171CDE9016300EB63
:10265000E10000904346524618211020FFF796FEF5
:10266000CDE900B94346524621463846FFF707FFF9
:1026700004EB080084B26D1C28780028A3D194E7ED
:102680001749C86070471648C0687047144AD08020
:1026900011817047124AD3880380108908807047DF
:1026A0000F49C88070470E490881704710B5014630
:1026B000FFF7E9FFC3880A484288BDE810400020C0
:1026C000FFF753BB10B500222C23DC062380064BFA
:1026D00001E01980521C8242FBD310BDBC250020B2
:1026E0002C000020440000200000026070B5054668
:1026F0000C460F4E3078002803D100F01DF8012061
:102700003070220AE1B2A13AC2EB021000EB421093
:1027100001EB4000A1380102C81701EB5070C11055
:10272000044820220144284600F083F9002070BDAF
:102730004C0000200030180070B586B0012108035D
:10274000FEF78BFB0121D420FEF787FB0124ADF8B7
:10275000004003208DF8020010208DF80300FA4D90
:1027600069462846FEF773F92021ADF800101821BC
:102770008DF80310F54E69463046FEF768F94021A2
:10278000ADF8001069463046FEF761F98021ADF8DA
:10279000001069463046FEF75AF901212846FEF737
:1027A000C5F90020ADF804004FF48271ADF80610B1
:1027B000ADF808000221ADF80A10ADF80C4009028E
:1027C000ADF80E100821ADF81010ADF8120007207A
:1027D000ADF81400DE4C01A92046FEF7C1FB012133
:1027E0002046FEF742FC06B070BD10B50146D9A0E8
:1027F00003F088FF002010BD2DE9F0410746E14CB1
:102800004FF480552560D24E09E02068411E2160BA
:1028100005D20020FFF7E9FFC0B2BDE8F081022138
:102820003046FEF79EFC0028EFD039463046FEF7D2
:102830004CFC256008E021684A1E226004D2012079
:10284000FFF7D3FFC0B2E8E701213046FEF789FC6D
:102850000028F0D03046FEF73AFCC0B2DDE710B5F4
:10286000B94C01212046FEF763F90520FFF7C4FFAC
:10287000FF20FFF7C1FFC007FAD12046BDE8104096
:102880000121FEF753B910B5AF4C01212046FEF7E8
:102890004FF90620FFF7B0FF2046BDE810400121A8
:1028A000FEF744B970B50446FFF7EDFFFFF7D7FF19
:1028B000A54D01212846FEF73BF92020FFF79CFF9C
:1028C000C4F30740FFF798FFC4F30720FFF794FF16
:1028D000E0B2FFF791FF01212846FEF727F9BDE896
:1028E0007040BCE710B5FFF7CEFF974C01212046A2
:1028F000FEF71EF9C720FFF77FFF01212046FEF7F4
:1029000015F9BDE81040AAE72DE9F04105460F464C
:102910001446FFF7B8FF8C4E01213046FEF708F948
:102920000220FFF769FFC7F30740FFF765FFC7F312
:102930000720FFF761FFF8B2FFF75EFFB015844292
:1029400008D9044690A003F0DDFE03E02878FFF7E5
:1029500053FF6D1C641EA4B2F8D201213046FEF76D
:10296000E5F8BDE8F0417AE72DE9F04706460D4667
:10297000E8B24142CFB2140A02F0FF094FF4807866
:10298000002812D0E8B24042C0B205EB000A24B3DE
:10299000D01B80B2040A00F0FF093A4629463046AF
:1029A000FFF7B2FF55463E4435E06CB92946304644
:1029B000BDE8F047A8E7424629463046FFF7A4FFA6
:1029C00005F5807506F58076641EE4B2F3D24A46BA
:1029D00029463046BDE8F04796E7B9450DD9A9EB41
:1029E0000700C4B23A4629463046FFF78DFF5146EC
:1029F000F0192246BDE8F04786E729463046BDE893
:102A0000F04781E7424629463046FFF77DFF05F54E
:102A1000807506F58076641EE4B2F3D2B9F1000F3A
:102A200005D04A4629463046BDE8F0476CE7BDE888
:102A3000F0872DE9F04104460F461546424E01212C
:102A40003046FEF775F80320FFF7D6FEC7F30740C0
:102A5000FFF7D2FEC7F30720FFF7CEFEF8B2FFF76D
:102A6000CBFE04E0FF20FFF7C7FE04F8010B6D1E4C
:102A7000ADB2F7D23046BDE8F0410121FEF756B8BD
:102A80002DE9F041304F01213846FEF751F89F20E3
:102A9000FFF7B2FEFF20FFF7AFFE0446FF20FFF76F
:102AA000ABFE0546FF20FFF7A7FE0646012138468C
:102AB000FEF73CF8200440EA05203043ADE670B54F
:102AC000214C01212046FEF733F8AB20FFF794FE9E
:102AD000FF20FFF791FEFF20FFF78EFEFF20FFF79C
:102AE0008BFEFF20FFF788FE054601212046FEF7FA
:102AF0001DF8284670BD10B5044601211248FEF7A6
:102B000017F80320FFF778FEC4F30740FFF774FEC1
:102B1000C4F30720FFF770FEE0B2BDE810406BE69B
:102B2000FF2069E62DE9F0410746164C4FF4805529
:102B30002560074E42E02068411E21603ED2BDE87C
:102B4000F041022051E60000001001400008014061
:102B5000003001403C3C2D464C4153482D455252DB
:102B60004F522D3E3E2053504920B5C8B4FDB3AC62
:102B7000CAB1216572726F72436F6465203D202572
:102B8000640A0000500000203C3C2D464C41534854
:102B90002D4552524F522D3E3E205350495F464CD8
:102BA0004153485F50616765577269746520746F5F
:102BB0006F206C61726765210A00000002213046B7
:102BC000FEF7CFFA0028B6D039463046FEF77DFA38
:102BD000256007E021684A1E226003D2BDE8F0416B
:102BE000032002E601213046FEF7BBFA0028F1D0AF
:102BF0003046BDE8F041FEF76ABA10B50E4C01212F
:102C00002046FDF795FFB920FFF7F6FD2046BDE809
:102C100010400121FDF78ABF10B5074C0121204665
:102C2000FDF786FFAB20FFF7E7FD2046BDE810402B
:102C30000121FDF77BBF0000001001402DE9F843A2
:102C400001216020FEF709F90124ADF800408DF85C
:102C5000024010258DF80350DFF834846946404661
:102C6000FDF7F5FE0420ADF8000069464046FDF78B
:102C7000EEFE0820ADF800008DF8024048268DF8E1
:102C8000036069464046FDF7E2FE6703ADF8007059
:102C90008DF802408DF80350FE4C69462046FDF742
:102CA000D6FE39462046FDF743FFADF800508DF8BB
:102CB000036069464046FDF7CAFEBDE8F88301B5EA
:102CC000002104E00C20401EC0B2FCD2491C009838
:102CD0008142F7D308BD70B50646ED4D0421284664
:102CE000FDF726FF01212846FDF722FF0024C4F14D
:102CF000070126FA01F0C00704D004212846FDF799
:102D000015FF03E004212846FDF712FF0520FFF719
:102D1000D6FF01212846FDF709FF0520FFF7CFFF69
:102D200001212846FDF704FF641CE4B2082CDED321
:102D300070BD70B50025D64E04213046FDF7F8FE73
:102D400001213046FDF7F2FE002401213046FDF757
:102D5000EFFE08213046FDF7D5FEC4F10B01884097
:102D6000284385B201213046FDF7E0FE641CE4B241
:102D70000C2CEAD3284670BD10B5FFF7ACFFBDE8B8
:102D80001040D6E770B506460D469020FFF7F4FFD9
:102D900004460120FFF793FFD020FFF7EDFF3480BA
:102DA000288070BD2DE9F0418CB006460024282112
:102DB000684603F0F2F9B64F6D460AA90BA8FFF773
:102DC000E1FFBDF82C0025F8140005EB4401BDF827
:102DD00028008882641CE4B210213846FDF792FE78
:102DE00008B90A2CE9D310213846FDF78BFE10B143
:102DF000A949002008700A2C03D000200CB0BDE8BF
:102E0000F081BDF9000080460446BDF91470BC464F
:102E1000012135F91130A34201DA1C4602E0834258
:102E200000DD1846491CC9B20A29F2D3012105EB7D
:102E30004102B2F91420BA4201DA174602E06245B3
:102E400000DD9446491CC9B20A29F0D3BDF902102D
:102E5000BDF90420BDF9063041441A441144BDF9BE
:102E600008201144BDF90A201144BDF90C20114479
:102E7000BDF90E201144BDF910201144BDF91220F6
:102E80001144091B081AC0103080BDF91400BDF9A7
:102E90001610BDF91A200844BDF918101144084451
:102EA000BDF91C100844BDF91E100844BDF92010DE
:102EB0000844BDF922100844BDF924100844BDF9A6
:102EC00026100844C01BA0EB0C00C010708001202D
:102ED00094E72DE9F04705460C4616460127B4F95C
:102EE0000010B4F91000B4F90A300A1AB4F912103B
:102EF0005B1A5A43B4F90830C01AB4F90230591AAF
:102F000000FB012003F092FAB06110F0FF4F7CD07B
:102F1000B5F90010B5F91000B4F90A300A1AB4F97D
:102F200012105B1A5A43B5F90830C01AB4F90230CE
:102F3000591A00FB012003F079FA3060B4F900104F
:102F4000B4F91000B5F908300A1AB5F910105B1A77
:102F50005A43B5F90030C91AB4F90830181A01FB00
:102F6000002003F063FA7060B4F91000B5F908307E
:102F7000B4F90810B5F910C000FB03F201FB1C28DE
:102F8000B4F9022008FB02F8B4F9002002FB0CF9A6
:102F9000B5F900C000FB1C9001FB0CF1B4F90A90DC
:102FA00002FB131100FB0980B4F9122001FB02009F
:102FB00003F03CFAB060B5F90210B5F91200B4F9AB
:102FC0000A300A1AB4F912105B1A5A43B5F90A30DA
:102FD000C01AB4F90230591A00FB012003F026FA96
:102FE000F060B4F90010B4F91000B5F90A300A1A0B
:102FF000B5F912105B1A5A43B5F90230C91AB4F97F
:103000000830181A01FB002000E02BE003F00EFA54
:103010003061B4F91000B5F90A30B4F90810B5F907
:1030200012C000FB03F201FB1C28B4F90220B5F921
:10303000025008FB02F8B4F90020694302FB0CFCC3
:1030400000FB15C0B4F90AC002FB131100FB0C8091
:10305000B4F9122001FB020003F0E8F97061384670
:10306000BDE8F0870027FAE770B504460D4604F185
:103070000A0082B2143880B22B462946FEF7ACFE15
:1030800005F10A0083B20A3DA9B22246204605E0B6
:10309000001801400014014054000020BDE87040B9
:1030A000FEF79ABE2DE9F14FB4B0FE48FFF7E8FAFB
:1030B00000211F20FFF7EAFA3498FEF7C9FDDFF878
:1030C000E8B3BBF800209008ADF84400F74D2B881A
:1030D0009908ADF84610ADF84C0003EB430040F3FF
:1030E0008F00ADF84E0002EB420242F38F02ADF8C2
:1030F0005420ADF85600ADF85C20ADF85E10002409
:10310000DFF8ACA30DF144080DF12409E74D0021CF
:10311000BBF800202B880846FEF727FEE5A6FFF740
:10312000B2FA8088BBF80010B1FBF0F7304603F02C
:103130003FF8381A42082023E4A119A8009603F0AA
:10314000F1FA288819A94008FEF7A0FFFFF79BFABB
:103150008088BBF80010661CB1FBF0F0401E00EB4D
:10316000D07042102023DBA119A8009603F0DAFAF0
:10317000FFF789FAC0882988C0EB510080B219A9ED
:10318000FEF784FF5046FFF79AFD08EBC400418824
:1031900038F83400FFF768FF09EBC4042046FFF756
:1031A00001FE0028FAD0F4B2042CAFD302AA09A978
:1031B00011A8FFF78EFE089810F0FF4F7DD0BDF9E3
:1031C0003E0003F033F90546039903F050F8044636
:1031D000BDF93C0003F02AF90646029903F047F8CE
:1031E000214602F0ECFF049902F0E9FF089903F090
:1031F00070F803F03DF984B22846069903F037F8D9
:1032000005463046059903F032F8294602F0D7FF0B
:10321000079902F0D4FF089903F05BF803F028F94E
:1032200080B2BDF95C10A14201DA611A00E0091B0D
:103230008AB2BDF95E10814201DA401A00E0081A34
:1032400080B20F2A39D80F28FCD8089803F024F947
:10325000CDE9321004460D46029803F01DF92246CE
:103260002B4603F074F803F02AF901463498DFF88E
:103270006C9200EB400749F83710DDE932540398AF
:1032800003F00AF922462B4603F061F803F017F920
:1032900009EBC70ACAF80400DDE93254049803F0C8
:1032A000FBF822462B4603F052F803F008F9CAF85F
:1032B0000800DDE93276059800E04EE003F0ECF816
:1032C00032463B4603F043F803F0F9F8CAF80C0025
:1032D000DDE93298069803F0DFF842464B4603F0EA
:1032E00036F803F0ECF8CAF81000DDE9325407981C
:1032F00003F0D2F822462B4603F029F803F0DFF85A
:10330000CAF81400694D0021BBF800202B8808463C
:10331000FEF72BFD4FF4FC60FFF7C2F970A4FFF736
:10332000B2F98088BBF80010B1FBF0F6204602F03D
:103330003FFF301A4208202364A119A8009403F02B
:10334000F1F9288819A94008FEF7A0FE6948FFF79F
:10335000B6FC012035B0BDE8F08F544C0021BBF81D
:10336000002023880846FEF700FD4FF47840FFF761
:1033700097F961A5FFF787F98088BBF80010B1FBCA
:10338000F0F6284602F014FF301A420820234FA11D
:1033900019A8009503F0C6F9208819A94008FEF77E
:1033A00075FE59A5FFF76FF98088BBF80010B1FBD7
:1033B000F0F6284602F0FCFE301A4208202343A112
:1033C00019A8009503F0AEF9FFF75DF9C0882188D0
:1033D00000EB510080B219A9FEF758FE4548FFF7EF
:1033E0006EFC0020B6E7F8B506460C4600200090BB
:1033F000FFF7A2F90122950229466846FFF719FB5B
:103400009DF80000A52801D0012200E00022012C37
:1034100007D000231A434FF4006720D0A52802D01C
:1034200008E00123F6E7012C04D1C02239462B48DD
:10343000FFF7FFFA3046FFF735FE0028FAD00020EC
:10344000FFF730FAA5200090012229466846FFF7D1
:103450008BFAC02239462148FFF786FAF8BDC02210
:1034600039461E48FFF7E5FAF8BD2DE9FC47064648
:103470000F464FF001086846FFF794FC80B1BDF994
:10348000020002F0D3FF02462248007800EB40051C
:1034900007EBC5041046616802F0E9FE81463BE097
:1034A00064E000003C0000202E00002030000020DE
:1034B000E0930400546F7563682043616C69627225
:1034C000617465202E2E2E2E2E2E0000252A6325B7
:1034D00073000000252A63256400000074000020AA
:1034E00043616C69627261746520537563636564DE
:1034F0000000000040420F0043616C696272617419
:1035000065206661696C0000747279206167616989
:103510006E0000002C000020BDF9000002F086FFC4
:1035200057F8351002F0A3FE494602F048FEA168A4
:1035300002F045FE02F083FF3080BDF9020002F088
:1035400075FF216902F093FE0546BDF9000002F007
:103550006DFFE16802F08BFE294602F030FE6169E2
:1035600002F02DFE02F06BFF708001E04FF00008CA
:103570004046BDE8FC872DE9F0410026F84C0025C7
:1035800001276178F748002908D04FF00208012987
:103590000CD002291DD06570304630E41021FDF7B3
:1035A000B1FA08B16570F7E76770F5E71021FDF72C
:1035B000A9FA10B165616570EEE76069401C606151
:1035C000022804D9656184F801800126E4E7677068
:1035D000E2E71021FDF796FA08B16570DCE784F8A0
:1035E00001800126D8E7F0B589B0064600242422E0
:1035F000DD49684602F0B8FD00226846002102EB72
:10360000420500EB850306EB850553F8217055F85C
:1036100021C0674500D1641C491C0329F5DB521CFD
:10362000032AEBDB082C02DBCD490120C86009B07E
:10363000F0BD2DE9FC5F82460025A8464FF6FF7BD2
:103640004FF05009002405EB45000AEB800705EB1D
:1036500085000BEA001657F82400CDE9000804EBBA
:10366000840009EB00105023314680B21A46FEF761
:1036700029FF641C032CEEDB6D1C032DE2DBBDE88F
:10368000FC9F2DE9F041B64E5027B0F9001072684A
:1036900002EB820307EB0314531C03EB830307EBDA
:1036A0000313A14214DD994212DAB568B0F902C0E1
:1036B000A8466D1C05EB8505BCEB051F08DD08F170
:1036C000020505EB8505BCEB051F01DA012064E767
:1036D000A14212DD994210DAB568B0F902C0A846DD
:1036E0006D1E05EB8505BCEB051F06DD08EB8805A7
:1036F000BCEB051F01DA02204FE7994216DD931C4F
:1037000003EB830307EB031399420FDAB368B0F9B5
:10371000025003EB830CB5EB0C1F07DD5B1C03EBC6
:103720008303B5EB031F01DA032036E7521E02EBD9
:10373000820207EB0212914211DDA1420FDAB0F9C9
:103740000210B06800EB8002B1EB021F07DD401CE5
:1037500000EB8000B1EB001F01DA04201DE7002020
:103760001BE730B504460846FFF78BFF7C4901286C
:103770001ED18A681346521C022A19DC02EB42024F
:1037800004EB82054A6803EB430304EB830355F81B
:10379000225043F822508A684D68521C02EB4202C4
:1037A00004EB820271A342F825308A68521C8A60B9
:1037B00002281DD18A68012A1AD4531E03EB430341
:1037C00004EB83054B6802EB420204EB820255F8DE
:1037D000235042F823508A684D68521E02EB420281
:1037E00004EB820261A342F825308A68521E8A6087
:1037F00003281AD14A681546521C022A15DC8B6828
:1038000003EB430304EB830353F8222043F8252002
:103810008A6856A302EB420204EB82054A68521CF6
:1038200045F822304A68521C4A60042819D1486879
:10383000012816D48A68431E02EB420204EB82027E
:1038400052F8233042F82030886848A200EB40004C
:1038500004EB80034868401E43F820204868401E5F
:10386000486030BD2DE9FC41B0F904104FF000076D
:10387000491C1DD001463A48E030FFF772FF384836
:10388000E030FFF7D6FE3AA43AA53BA63448E03034
:10389000FFF7A9FE3248C06801280BD0002807D1E5
:1038A000CDE9005728231A46B4211420FEF70AFE5A
:1038B000BDE8FC81CDE9004728231A46B421142035
:1038C000FEF700FE50231A46A021F020CDE9006744
:1038D000FEF7F8FDBDE8FC414FF4FA7002F0BEB807
:1038E000B0F90400401C704770B5FFF744FE23494F
:1038F0001B4C202301220D1D0226183401280BD059
:103900000B600A602E602046FFF7EAFFF01E208061
:103910006080A080E08070BD0B602A600E60104D5A
:103920002869401C2861E868012802D1002028612C
:10393000E8600B492031A1F10800FFF796FD2869E6
:10394000022803DB06481830FFF78CFF2088A08090
:103950006088E08070BD30B400230022511C17E065
:103960005400002000180140788200082000000068
:10397000A1CC0000A1C1000039000000100C0140E2
:1039800050F8224050F82150AC4200D95B1C491C31
:103990000929F5DB521C092AE0DBD90702D030BC2B
:1039A00000F002B830BC70472DE9F0410546002612
:1039B000072702F0C7FB90FBF7F107FB110402F0A9
:1039C000C1FBC11700EB517121F00701411A081B1F
:1039D00001280FD0621A012A0CD003280AD0032A2A
:1039E00008D055F8210055F8242045F8212045F845
:1039F0002400761C1E2EDCDB2846BDE8F041AAE739
:103A000010B504462046FFF7CFFF2046BDE8104022
:103A10000FE67047F8B504460126207B4FF6FF7588
:103A2000002820D028460146FEF730FE0096E088A8
:103A30006188A288401A83B22088121A92B2FEF7D7
:103A400019FA29464FF40470FEF720FE002000907A
:103A5000E0886188A288401A83B22088121A92B244
:103A6000FEF708FAF8BD2089294680B2FEF70EFE5F
:103A70000096E0886188A288401A83B22088121AD2
:103A800092B2FEF7F7F9DCE713480021018041808C
:103A90004FF4A0728280F022C2804FF6FF728260E3
:103AA00001730E4901610E494161704710B5FEF77F
:103AB000CFF84FF6FF70FEF7F6FD0A4800210388A5
:103AC000094802880846FEF750F9FFF7DDFF024873
:103AD0000169BDE810400847BC690020153A00089C
:103AE000133A0008300000202E00002070471848CC
:103AF0000068704710B5044602F086F914490C605E
:103B0000BDE8104002F084B910B511490868401CA6
:103B1000086001F09FFE816C491E816419B9416CF7
:103B2000816401F030FFBDE8104002F00CB90028BC
:103B300002DA4FF0FF30704700EB4001C1EBC010DC
:103B400040F2E73101EBC000491C90FBF1F07047F7
:103B50005801002000207047002070470020704767
:103B60000020704770B5234C234D02E02068804749
:103B7000241DAC42FAD370BD70B51F4C1F4D02E03E
:103B800020688047241DAC42FAD370BD10B5FFF702
:103B9000F3FFBDE81040FDF78BBD1CB502211420DA
:103BA000CDE900100B020022AFF21F0114A001F0BA
:103BB000A7FEBDE81C4001F06EBE10B502F024F96E
:103BC000FDF7CEFC01F088F902F0F2F801F0ECFC10
:103BD000FFF7E3FF02F0F6F800F054F801F0FAFC0A
:103BE000002010BD10B502F00FF9FFF7E6FF00202E
:103BF00010BD0000E8830008EC830008F083000893
:103C00006D61696E0000000070B527E002F0FCF8FD
:103C1000064600F051F868B32B480468A4F1140577
:103C2000D4E900104860D4E90001086064602460B1
:103C300001F05AFDA96F09B128468847284601F0CE
:103C400075FC01280FD001F05AFD304602F0E0F873
:103C5000A86A01F0E9FA284601F057FC00F02CF8B8
:103C60000028D3D170BD01F04AFD3046BDE8704058
:103C700002F0CEB83046BDE8704002F0C9B8FFF798
:103C8000C3FFFCE71FB52020C20007210F4BCDE981
:103C90000210CDE900320D4800230D4A0DA18038F5
:103CA00001F0BCFD04B00948BDE81040803801F0C7
:103CB000F2BD06488038704703480168814201D050
:103CC000012070470020704708020020546A00203D
:103CD0007F3C00087469646C650000002DE9F041C8
:103CE00005460E461446304601F079FE06F11407EB
:103CF00014B1012C1DD104E03946284600F0D0FD56
:103D000017E02C680DE0A4F1140096F8351090F837
:103D10003520914204D23946143000F0C1FD02E052
:103D20002468AC42EFD1AC4203D13946284600F0BA
:103D3000B7FD0020BDE8F08170B505464FF0FF34B7
:103D40000AE002F061F8064628681438046301F0BE
:103D500084FD304602F05CF8284600F0A8FD0028FB
:103D6000EFD0002070BD2DE9F041054616461F46F4
:103D70000A460121284601F077FB2C461434646082
:103D80002460AE836F720020D4E710B5044604F1BE
:103D90001400FFF7D1FF204601F084FB002010BD86
:103DA00070B50C4615460146012001F089FB00283C
:103DB00005D000F11401496009608483457270BD2B
:103DC00010B5044604F11400FFF7B6FF204601F0D9
:103DD0009CFB002010BD73B5044602F015F80646A2
:103DE000A08B28B1401EA083304602F011F821E0DC
:103DF000019808B301F02EFD054600202863627A81
:103E0000294604F11400FFF769FF0198002809DD35
:103E100005F14C0001AA0021044601F07AFF20467A
:103E200001F0F9FE304601F0F3FF01F0E3FB286BEF
:103E3000002800D100207CBD304601F0E9FF6FF082
:103E400001007CBD0021C6E72DE9F04104460025B4
:103E500001F0DAFF064604F11400074600F027FDE2
:103E600040B1A08B401CA083304601F0D1FF012D52
:103E700005D006E0384600F021FD0125F4E701F009
:103E8000B9FB002056E770B505461446012902D05B
:103E90004FF0FF3070BD01F0B7FF064605F114008A
:103EA000FFF74AFFAC83304601F0B2FF01F0A2FBFE
:103EB000002070BD70B5044615460A460221204612
:103EC00001F0D2FA20461430406000600120A08347
:103ED00000202062FF21A177E077657270BD10B5E8
:103EE000044604F11400FFF727FF204601F0DAFA38
:103EF000002010BD10B50C460146022001F0E0FA8A
:103F000000280BD000F11401496009600121818370
:103F100000210162FF228277C177447210BD10B583
:103F2000044604F11400FFF707FF204601F0EDFA04
:103F3000002010BD2DE9F341044601F08BFC05463D
:103F400001F062FF064600202863206AA84203D1E0
:103F5000E07F401CE07744E0A08B50B1A08B401E76
:103F6000A083256295F83500A077E07F401CE077BC
:103F700037E0019850B3206A95F8351090F8352055
:103F8000914204D205F13502022101F068FD627A06
:103F9000294604F11400FFF7A1FE0198002809DD6D
:103FA00005F14C0001AA0021074601F0B2FE384697
:103FB00001F031FE304601F02BFF01F01BFB286BB6
:103FC00060B10930C8D0286BBDE8FC816FF00104F6
:103FD0002C63304601F01CFF2046F5E701F014FF8A
:103FE0000646304601F014FF0020EDE72DE9F041D0
:103FF0000446002501F02EFC064601F005FF0746A9
:10400000206AB04206D06C1E3463384601F000FFCF
:1040100020468FE6E17F491EC9B2E177B1B9A17FA1
:1040200090F83520914204D004F11E02022101F0E3
:1040300016FD04F11400064600F039FC60B1A08BB7
:10404000401CA08300202062FF20A077384601F0AA
:10405000DFFE012D0ED00FE060691438206290F869
:104060003500A077E07F401CE077304600F026FC6A
:104070000125EBE701F0BEFA00205BE64FF0FF30D0
:10408000704770B5054614460A460321284601F0DC
:10409000EBF96C722C461434646024600020E861F3
:1040A00070BD10B5044604F11400FFF745FE20462C
:1040B00001F0F8F9002010BD10B50C4601460320B0
:1040C00001F0FEF9002806D0447200F114014960A5
:1040D00009600021C16110BD10B5044604F114004F
:1040E000FFF72AFE204601F010FA002010BD2DE94E
:1040F000F04704460D464FF0FF38002D0DD0002745
:1041000001F082FE8246E0692843E06104F1140078
:10411000814600F0CCFB18B128E04046BDE8F087AE
:10412000656921E0A5F11400464690F84010CA07E1
:1041300005D0C16BE269914309D1002607E08907E8
:1041400005D5C16BE269114001D0C16300262D681D
:1041500056B990F84010490703D5E169C26B914305
:10416000E16101F07AFB01274D45DBD1504601F0BA
:104170004FFE012F01D101F03DFA0020CEE72DE9DD
:10418000FF470546DDF830900E4690464FF0FF3071
:10419000002E46D0074601F05DFB04460020206358
:1041A00001F032FE82465FEAC87005D0E86936EA5F
:1041B000000008D1002706E05FEA887003D5E869AF
:1041C000304200D0002777B3039868B3E66384F8E1
:1041D00040806A7A214605F11400FFF77FFD0398BD
:1041E000002809DD04F14C0003AA0021054601F076
:1041F00090FD284601F00FFD504601F009FE01F048
:10420000F9F9206B00280CD101F0FEFD8246B9F1CE
:10421000000F02D0E06BC9F80000504601F0F8FD35
:10422000206B04B07AE700E00DE0B9F1000F03D095
:10423000E8693040C9F800005FEA4870EDD5E869E8
:10424000B043E861E9E76FF001002063E5E770B58E
:104250000446012902D04FF0FF3070BD01F0D4FDBB
:10426000054604F11400FFF767FD0020E0612846D1
:1042700001F0CEFD01F0BEF9002070BD2DE9F04146
:104280000446069F16461D460A460421204601F0B4
:10429000EBF867722046143040600060E6612584C8
:1042A00000206084A084E08428346460246041E5B8
:1042B00010B5044604F11400FFF73EFD04F1280098
:1042C000FFF73AFD204601F0EDF8002010BD70B573
:1042D0000D4616460146042001F0F2F8044620007F
:1042E00014D06672143040600060A8B22084800050
:1042F00000F01CFFE06158B100206084A084E084DD
:1043000004F1280040600060204670BD204670BD6A
:10431000204601F0FAF8002070BD10B5044604F103
:104320001400FFF709FD04F12800FFF705FDE0691F
:1043300000F07AFF204601F0E8F8002010BD2DE9DA
:10434000F74F04468B46002601F084FA054601F03B
:104350005BFD8046608C218C6FF0020A884201D19F
:10436000029808B100273BE0404601F051FD50465D
:10437000BDE8FE8F2F630298F0B1627A294604F1FE
:104380002800FFF7ABFC029800280CDDFFF7AFFB1D
:10439000064605F14C0002AA0021814601F0B9FC55
:1043A000484601F038FC404601F032FD01F022F9A8
:1043B000286B30B1286BDBE7404601F029FD504601
:1043C000D6E701F021FD80460298002808DDFFF7BE
:1043D0008EFB861B0298801B0290002800DA029751
:1043E000608C218C8842C5D0A18CE06940F821B056
:1043F000A08C401C80B2A084218C884200D3A7846A
:10440000608C401C608404F11400044600F04FFAF4
:1044100020B1404601F0FCFC0020A9E7204600F056
:104420004DFA404601F0F4FC01F0E4F800209FE76B
:10443000002284E72DE9F74F04468B46002601F061
:1044400009FA054601F0E0FC8046608C6FF0010A35
:1044500008B9029808B100273CE0404601F0D8FCBA
:10446000504685E72F630298F0B1627A294604F13D
:104470001400FFF733FC029800280CDDFFF737FB30
:10448000064605F14C0002AA0021814601F041FCDC
:10449000484601F0C0FB404601F0BAFC01F0AAF822
:1044A000286B40B1286B63E7404601F0B1FC5046F1
:1044B000C5F830A05CE701F0A7FC80460298002810
:1044C00008DDFFF714FB861B0298801B0290002872
:1044D00000DA0297608C0028C4D0E18CE06950F8C3
:1044E0002100CBF80000E08C401C80B2E084218CDD
:1044F000884200D3E784608C401E608404F1280069
:10450000044600F0D4F920B1404601F081FC0020BF
:104510002EE7204600F0D2F9404601F079FC01F088
:1045200069F8002024E770B50446012902D04FF055
:10453000FF3070BD01F068FC054604F11400FFF780
:10454000FBFB04F12800FFF7F7FB00206084A08448
:10455000E084284601F05CFC01F04CF8002070BDBE
:104560002DE9F0410446DDE9066817461D460A4676
:104570000521204600F078FF84F809802046143099
:1045800040600060E761ED1C4FF6FC70054025843B
:104590002D1DB6FBF5F060840022A262E262226368
:1045A000002008E0218CE369091D00FB0131236B29
:1045B0000B602163401C618C8142F3DCA2840020EB
:1045C00060E410B5044604F11400FFF7B5FB204683
:1045D00000F068FF002010BD10B5044604F114007F
:1045E000FFF7AAFBE06900F01FFE204600F08DFFF8
:1045F000002010BD2DE9F0410D4616461F4601462C
:10460000052000F05DFF0446200016D067721430CC
:1046100040600060ED1C4FF6FC7005402584B0B290
:1046200060842D1D684300F081FDE06138B10022F7
:10463000A262E262226300200FE0204622E42046CC
:10464000FFF7CAFF00201DE4218CE369091D00FB70
:104650000131236B0B602163401C618C8142F3DCD0
:10466000A28420460EE42DE9F04104460F4616468A
:10467000208CB04202D24FF0FF3003E401F0C4FBC3
:10468000256BA5B12968216301F0C2FB00202860D9
:1046900032463946281D00F069F901F0B5FB06469F
:1046A000E06A00B10560E562A06A28B105E001F0AA
:1046B000AFFB6FF00200ACE4A562A08C401CA084AC
:1046C00004F11400044600F0F2F820B1304601F085
:1046D0009FFB00209DE4204600F0F0F8304601F0FA
:1046E00097FB00F087FF002093E42DE9F04104469A
:1046F0000F461646208CB04202D24FF0FF3088E4BD
:1047000001F082FB256B8DB12968216301F080FBEC
:1047100032463946281D00F029F901F075FB06469E
:10472000A06A2860A562E06A28B105E001F070FB8C
:104730006FF002006DE4E562A08C401CA08404F1DF
:104740001400044600F0B3F820B1304601F060FBDD
:1047500000205EE4204600F0B1F8304601F058FB3E
:1047600000F048FF002054E42DE9FF5F0446914625
:10477000002601F06FF8054601F046FB0746A08CC5
:104780006FF0010B08B9039810B14FF0000840E03A
:10479000384601F03DFB584604B0BDE8F09FC5F82F
:1047A00030800398F0B1627A294604F11400FFF7D3
:1047B00095FA039800280CDDFFF799F9064605F1F4
:1047C0004C0003AA0021824601F0A3FA504601F0F2
:1047D00022FA384601F01CFB00F00CFF286B40B1B8
:1047E000286BD9E7384601F013FB5846C5F830B0BE
:1047F000D2E701F009FB07460398002809DDFFF71F
:1048000076F9861B0398801B0390002801DACDF807
:104810000C80A08C0028C2D0A56A2868A062E06A3B
:10482000A84201D1C4F82C80A08C401EA084384638
:1048300001F0EEFA208C484500D281464A46291DF7
:10484000019800F093F801F0DFFA216B29602563ED
:1048500001F0DEFA00209FE770B50446012902D07E
:104860004FF0FF3070BD01F0CFFA054604F114009F
:10487000FFF762FA002108E00268A262E26A82425F
:1048800000D1E162226B02602063A06A0028F3D1AC
:10489000A184284601F0BCFA00F0ACFE002070BDF7
:1048A0004268116042684A60416008607047016870
:1048B000814201D1012070470020704710B5006887
:1048C000143800F0CAFF002010BD000010B501F040
:1048D0009BFA0B4A1178491C1170BDE8104001F099
:1048E00097BA10B501F090FA054A1178491E117077
:1048F000BDE8104001F08CBA014800787047000014
:104900005C01002010B5FFF7F7FFF84C08B12068F4
:1049100010BD00F09FFF08B1006B10BD206810BDF6
:1049200070B50446FFF7E8FFF04D08B12C6070BD8C
:1049300000F090FF08B1046370BD2C6070BD10B52D
:10494000FFF7DAFF08B1E94810BD00F083FF08B1B6
:10495000303010BDE54810BD10B50346C9B201E0C6
:1049600003F8011B521E541CFAD110BD30B503468A
:1049700018468B4207D98C189C4204D307E011F8E3
:10498000014B03F8014B521E541CF8D130BD002AD4
:10499000FCD08C189D1814F8014C05F8014C521EDF
:1049A000002AF6D130BD10B503461846814210D218
:1049B0008C189C420DD9991803E014F8013D01F8B8
:1049C000013D521E531CF8D110BD11F8014B03F8E4
:1049D000014B521E541CF8D110BD10B5002306E047
:1049E00003780C781B1B04D1401C491C521E002A62
:1049F000F6D1184610BD014600E0491C0A78002A8D
:104A0000FBD1081A7047F0B506460F463846FFF747
:104A1000F2FF0546280004D03046FFF7ECFF0446BD
:104A200009E03046F0BD641E2A4639463046FFF79D
:104A3000D4FF20B1761CAC42F5DA0020F0BD304640
:104A4000F0BD10B510F8012B11F8013BA2F14104A3
:104A5000192C00D82032A3F14104192C00D820339E
:104A60009A4201D1002AEDD1D01A10BD10B5002A0A
:104A700007D0034611F8014B03F8014B14B1521E45
:104A8000F8D110BD002101E003F8011B521EFBD13B
:104A900010BD10B5002308E011F8013B0478E31ABB
:104AA0005BB223B9401C14B1521E002AF4D118463F
:104AB00010BD01E0401C491C027812B10B789A42EB
:104AC000F8D000780978401A7047024600E0521C7E
:104AD000137813B1131A8B42F9D3101A704770B5BB
:104AE00006463046FFF787FF451C284600F01EFBB0
:104AF000044634B12A4631462046FFF737FF2046A8
:104B000070BD002070BD70472DE9FF4FDDE90DB687
:104B10000F9D6C0602D5DFF8D8A103E0DFF8D0A125
:104B2000AAF1110AEC0601D525F00105EC0702D027
:104B30004FF0300901E04FF020090027AC070BD5FA
:104B4000002A02DA2D27524206E06C0701D52B27F6
:104B500002E02C0700D520270024EE467AB9302247
:104B600001248DF800200CE00A2B15D002F00F086C
:104B70001209A4461AF80880641C0EF80C80002A5A
:104B8000F2D1B44200DD2646ABEB060215F0110F60
:104B90004FF0200309D016E04FF00A0CB2FBFCF8EE
:104BA0000CFB1828B2FBFCF2E3E73FB1002A05DD5D
:104BB000521E03E0884200D80370401CB2F1000C82
:104BC000A2F10102F6DC27B1884201D80770521E1B
:104BD000401CED0605D508E0884201D880F8009019
:104BE000401C151EA2F10102F6DC302703E08842CA
:104BF00000D80770401C3546761EA542F7DC05E05C
:104C0000884202D81EF804500570401C251EA4F1ED
:104C10000104F5DC03E0884200D80370401C141E38
:104C2000A2F10102F7DC04B0BDE8F08F2DE9FF4FDF
:104C300083B082460AEB01077F1E5446A74201D289
:104C40004FF0FF374FF020094FF0250B17E12528D3
:104C500004D0BC4200D82070641C0DE100250599E9
:104C6000491C059108782D2814D02B2815D0202810
:104C700016D0232817D0302818D04FF0FF384646DA
:104C8000059A1278303A0A2A13D205A800F093F94F
:104C900006461AE045F01005E1E745F00405DEE7B9
:104CA00045F00805DBE745F02005D8E745F00105AC
:104CB000D5E72A2809D1491C0591069840C80690D5
:104CC000002E02DA764245F01005059801782E296B
:104CD0001DD1401C05900178A1F130020A2A09D2A9
:104CE00005A800F068F980460CE000006001002093
:104CF000AD8300082A2905D1401C0590069850F87C
:104D0000048B0690B8F1000F01DA4FF00008002183
:104D1000059A1078682801D06C2802D10146521CEF
:104D200005920A23059800786F2871D00CDC63285F
:104D300020D004DC25286CD058280DD187E06428C9
:104D400001D0692808D186E0702863D073282FD05D
:104D5000752871D078287CD0BC4201D884F800B086
:104D6000641C05990878002868D0BC4200D82070DF
:104D7000641C81E0E80605D507E0BC4201D884F850
:104D80000090641C761E002EF7DC069810F8041BB9
:104D90000690C8B2BC4200D82070641C04E0BC423B
:104DA00001D884F80090641C761E002EF7DC63E0C6
:104DB000069808C8069003B989A31846FFF71BFE9A
:104DC000B8F1000F02DD404500DD4046E90605D59B
:104DD00008E0BC4201D884F80090641C3146761E7D
:104DE0008142F6DC002106E0BC4201D81A7822702C
:104DF000641C5B1C491C8142F6DB04E0BC4201D808
:104E000084F80090641C3146761E8142F6DC33E063
:104E10001BE014E0701C02D1082645F00105CDE925
:104E2000006806980295102304C80690394620466B
:104E3000FFF76AFE04461FE00FE00AE028E0BC42EC
:104E400001D884F800B0641C16E0082305E045F0A2
:104E50004005102301E045F002056C291BD06829AC
:104E60001DD0069804C80690CDE900683946204652
:104E70000295FFF749FE04460598401C05900598E9
:104E8000007800287FF4E3AEBC4211D8207010E017
:104E9000491E0591F0E7069804C80690E4E70698D5
:104EA00030F8041B06908AB2A807DDD512B2DBE702
:104EB0003870A4EB0A0007B0B6E60FB408B503AB30
:104EC00000937F214848029AFFF7B0FE4648FCF75E
:104ED00088FB01B05DF814FB08B544A0FFF7EDFFB7
:104EE00045A0FFF7EAFF4DA00323009000221946DA
:104EF0004DA0FFF7E2FFBDE8084053A0DDE70FB487
:104F000010B505AB049AFFF791FE10BC5DF814FBD9
:104F100017B40A46029B03B04FF0FF3110BC85E680
:104F20000FB410B504AA0399FFF7F2FFEDE710B52F
:104F3000002801D0FCF755FB10BD10B5C91C21F0AD
:104F40000304C01C20F00300204400F0EFF8002808
:104F50000BD0611E084201D1011903E00219521E53
:104F600022EA010141F8040C084610BD50F8040C77
:104F700000F05AB9002807D03E4910F0FF0F05D0C5
:104F8000C0B2085C401C70470020704710F47F4F8F
:104F900004D0C0F30720085C0930704710F47F0F7D
:104FA00004D0C0F30740085C1130704701EB10607B
:104FB00000781930704710B5024600206FF02F04BA
:104FC00007E04B1C1360097800EB800004EB400005
:104FD000084411680B78303B0A2BF2D310BD000057
:104FE000284E554C4C290000546B00200A205C20B0
:104FF0007C202F0A000000002D205254202D20205C
:10500000202020546872656164204F70657261745D
:10501000696E672053797374656D0A004170722060
:105020003234203230313900202F207C205C202087
:1050300020202025642E25642E2564206275696C4D
:10504000642025730A0000002032303036202D20E5
:105050003230313820436F7079726967687420622A
:10506000792072742D746872656164207465616D55
:105070000A0000009C82000830B5CD4C41682268CF
:10508000114402F1080388420DD04D885DB965686E
:10509000A94208D0A5688D4200D1A0604D68456046
:1050A0004968851ACD508168114481420BD04D88E2
:1050B000002D08D1A568854200D1A16044684C60EC
:1050C0004068891AC15030BD70B505460A46E81CD3
:1050D00020F0030122F00303182B21D9A3F11804B7
:1050E0008C421DD3B24C5A1A183AE26021604FF438
:1050F000F5530B800C324A60002088604880486875
:105100000844606003800121418042608260002386
:105110000122A8A1A948FEF726FE2068A06070BD64
:105120002946BDE87040A6A0FFF7C7BE2DE9F047AD
:10513000002809D0C01C20F003059D4EF068854270
:1051400004D90020BDE8F0870020FBE70C2D00D239
:105150000C254FF0FF319948FEF73DFEB7683168E6
:10516000781AD6F80CC0ACEB050356E00C18628830
:105170008ABB6268121A0C3AAA424DD3626805F1E2
:105180001803121A0C3A4FF001094FF4F5589A42DD
:1051900022D343190C33CA18A2F800804FF0000A3A
:1051A000A2F802A0D4F804A0C2F804A09060636042
:1051B000A4F8029050680CF10C0C604502D001F18B
:1051C00008028350306928440C3030617269824291
:1051D0000ED270610CE01FE0A4F802906068621AC1
:1051E000801A3269104430617269824200D2706163
:1051F000A4F80080BC4203D008E040680844B060D6
:10520000B068428812B172689042F6D16B48FEF7DE
:105210001BFE04F10C0095E760688342A6D867483E
:10522000FEF712FE00208DE770B5002833D0604DE8
:10523000296888422FD3696888422CD2A0F10C04D7
:105240004FF0FF315D48FEF7C6FD60884FF4F5561C
:1052500010B12088B04208D068A0FFF72EFE238846
:10526000628821466CA0FFF728FE0020608026801F
:10527000A868844200D2AC6029686068611A401A4C
:105280002969081A28612046FFF7F6FEBDE870403C
:105290004A48FEF7D9BD70BD2DE9F0410646C91C4C
:1052A00021F00304424FF868844202D90020BDE88F
:1052B000F08184B1A6B14FF0FF314048FEF78BFD7D
:1052C0003A68964202D3786886420DD33B48FEF78F
:1052D000BBFD3046EBE73046FFF7A6FF0020E6E7D0
:1052E0002046BDE8F04121E7A6F10C01A1EB020C3C
:1052F0004868A0EB0C050C3DA54204D12F48FEF7F1
:10530000A3FD3046D3E704F11800A8421FD23B6941
:10531000281B181A38610CEB04030C33D0184FF417
:10532000F5540480002444804C684460C0F808C0F0
:105330004B60FC6841680C34A14201D008328B50AC
:10534000FFF79AFE1D48FEF77FFD3046AFE71B488A
:10535000FEF77AFD2046FFF7E9FE074657B1A54262
:1053600000D22C46224631463846FFF7FFFA304637
:10537000FFF75AFF38469AE770B548430446FFF7EF
:10538000D5FE054625B1224600212846FFF7E4FA5E
:10539000284670BD10B5064B002801D0DC680460BB
:1053A00009B118690860002A01D05869106010BD61
:1053B000640100206865617000000000D46B00206B
:1053C0006D656D20696E69742C206572726F722034
:1053D000626567696E2061646472657373203078FA
:1053E00025782C20616E6420656E6420616464728F
:1053F00065737320307825780A000000746F20668A
:10540000726565206120626164206461746120625C
:105410006C6F636B3A0A00006D656D3A2030782539
:105420003038782C207573656420666C61673A208B
:1054300025642C206D6167696320636F64653A2081
:105440003078253034780A0070470021554A02EB45
:1054500001131B78834202D102EB01107047491CF3
:105460000829F4DB002070472DE9F04104460D4681
:1054700017462846FFF7E9FF064645F080002072F0
:10548000082239462046FFF7F1FA00F0BDFC054638
:1054900004F10C01301D00F075F82846BDE8F0411C
:1054A00000F0B6BC70B5044600F0AEFC054604F151
:1054B0000C0000F06EF82846BDE8704000F0A8BC73
:1054C0002DE9F04106460F463046FFF7BEFF054680
:1054D000E868FFF72BFE0446ACB12672002060722C
:1054E000082239462046FFF7C1FA00F08DFC064637
:1054F00004F10C01281D00F045F8304600F088FC4E
:105500002046BDE8F0810020FBE770B5044600F0BE
:105510007BFC054604F10C0000F03BF8284600F047
:1055200077FC2046BDE87040FFF77EBE007A00069B
:1055300001D501207047002070472DE9F041074652
:105540000C46002F01D00B2C01D90020D9E700F028
:10555000CBF82046FFF779FF4468051D08E0A4F169
:105560000C06082239463046FFF793FA30B124681A
:10557000AC42F4D100F0C3F80020C2E700F0BFF85D
:105580003046BEE70268516002680A600160486008
:105590007047D0E900215160D0E9001211604060ED
:1055A000006070477C01002010B5614B00245C80D6
:1055B0000020604A02EBC00149600960401C0828D5
:1055C000F8DB072018705C609C6059480C30406024
:1055D000006010BD10B5564CA068FFF7CBFC401E14
:1055E000544951F8300014386060BDE810401C3058
:1055F00000F03FBC70B500F007FC05464C4C6088DD
:1056000020B12846BDE8704000F002BCA068FFF75A
:10561000B1FC421E474850F832101439606881428C
:1056200016D022706160444A127842B11C311C309D
:1056300000F0F1FB2846BDE8704000F0E9BB1C31EA
:105640001C3000F0E8FB2846BDE8704000F0E0BBED
:105650002846BDE8704000F0DBBB10B5044600F002
:10566000D3FB024614F8340F20F00F00401C2070CA
:1056700060783049343C01EBC00104F114004B6800
:1056800018604B684360486001602948A16B8368DB
:1056900019438160BDE81040104600F0B9BB70B5F9
:1056A000054600F0B1FB014605F11404D4E90020E1
:1056B0005060D4E9000210606460246095F8350001
:1056C0001C4A02EBC0000268824201D1012000E0C6
:1056D000002020B11648AB6B82689A438260BDE817
:1056E0007040084600F094BB10B500F08DFB104AE6
:1056F0005188491C5180BDE8104000F089BB10B5AD
:1057000000F082FB0A4A5188491E09B251800029E3
:1057100006DC0021518000F07BFBBDE8104069E70A
:10572000BDE8104000F074BB0148408880B270476B
:10573000FC010020F46B00205C01002070B5F848EB
:10574000046800F061FB05462046FFF7A8FF04202F
:1057500084F8340004F14C0000F026FA2046FFF7EC
:10576000E5FE012801D1A06F58B104F11401ED4804
:1057700000F0CFF9284600F04BFBBDE87040FFF782
:1057800039BF2046FFF78EFEF4E710B504466FF0F0
:105790000100206304F1140000F0C8F92046FFF76F
:1057A0005CFFBDE81040FFF725BF2DE9FC411F4617
:1057B000DDE90A65DDE90831044604F114004060C2
:1057C00000601C346260A760E36021610A46232107
:1057D0001846FFF7C1F8D4E903014218121FAFF2CF
:1057E000A303D4E9010100F087FB2060A67666766A
:1057F0000020E061A562E56260612076E0652066D8
:105800001C3C00902346AFF27D020190214604F13A
:105810004C0000F0B4F90020BDE8FC812DE9FF5FE9
:105820008146DDE90E76DDE91054884692469B46B6
:10583000424600214846FFF717FECDE90076CDE944
:1058400002545B46524641464846FFF7AEFF04B05D
:10585000BDE8F09FB2480068704770B5044694F800
:10586000340000F00F00022802D04FF0FF3070BD6E
:1058700000F0CAFA054604F1140000F057F904F1EB
:105880004C0000F02FFA284600F0C2FA2046FFF73D
:10589000E4FE002070BD10B53430817841700122E3
:1058A0008A404260022100F83419FFF7D6FFFFF763
:1058B000D1FF08B1FFF79EFE002010BD70B5044671
:1058C00094F83400000702D02046FFF7E8FE04F108
:1058D0004C0000F069F9042084F834002046FFF7FA
:1058E000E1FDA06F50B100F08FFA054604F11401FC
:1058F0008C4800F00EF9284600F08AFA002070BDAE
:105900002DE9FF478046DDE90C67894692461D4632
:1059100041460020FFF7D4FD044620000FD0284662
:10592000FFF704FC68B18DE8E10053464A46414662
:105930002046FFF73AFF204604B0BDE8F08700207C
:10594000FAE72046FFF7E1FD0020F5E770B50446D1
:1059500094F83400000702D02046FFF7A0FE04F1BF
:105960004C0000F021F9042084F8340000F04CFAD7
:10597000054604F114016B4800F0CBF8284600F00E
:1059800047FA002070BD70B500F03EFA0646644844
:10599000046894F8340000F00F0001281AD1D4E90B
:1059A0000501884216D004F11400054600F0BEF847
:1059B00094F835005C4901EBC00041680D60416816
:1059C000696045602860304600F022FAFFF712FE59
:1059D000002070BD304600F01BFA002070BD70B58D
:1059E000044694F8340000F00F00012802D04FF074
:1059F000FF3070BD00F008FA054694F8340020F03E
:105A00000F00801C84F834002046FFF748FE04F1A4
:105A10004C0000F067F9284600F0FAF9002070BD4C
:105A2000F1B500F0F1F905463D4804682046FFF75E
:105A3000D6FF04F14C006A460021064600F069F9E1
:105A4000304600F0E8F8284600F0E2F9FFF7D2FD12
:105A5000206B801C00D120630020F8BDE0E72DE919
:105A6000F04104461546002924D0012926D00229F8
:105A700011D100F0C9F9074694F83400012600F06E
:105A80000F0001280AD0287884F835008640A663E4
:105A9000384600F0BDF90020BDE8F0812046FFF750
:105AA000FEFD287884F835008640A6632046FFF77F
:105AB000D4FDEDE72046BDE8F041ECE62046BDE828
:105AC000F04143E72DE9F0410746FFF7C3FE08B177
:105AD000FFF70AFE0020FFF7B8FC4468051D08E048
